:020000022000DC
:10600000000004206D3F0400AD3F0400AF3F0400DA
:10601000B13F0400B33F0400B53F0400000000009E
:10602000000000000000000000000000E93E040045
:10603000B93F040000000000093F0400BD3F040018
:1060400041410400BF3F0400015604002DBD020081
:10605000E5BD0200BF3F0400AD190400BF3F0400CE
:10606000BF3F0400BF3F0400BF3F0400BF3F040028
:10607000BF3F0400BF3F0400BF3F0400BF3F040018
:10608000BF3F0400393C0400BF3F0400BF3F040091
:10609000BF3F0400BF3F0400BF3F0400BF3F0400F8
:1060A000BF3F0400BF3F0400BF3F0400BF3F0400E8
:1060B000BF3F0400BF3F04000000000000000000DC
:1060C000BF3F0400BF3F0400BF3F0400554604002B
:1060D000BF3F0400BF3F0400BF3F0400D97A020065
:1060E0004D560400BF3F0400BF3F04000000000005
:1060F00000000000BF3F040000000000CD46040087
:10610000000000000000000000000000000000008F
:10611000000000000000000000000000000000007F
:10612000000000000000000000000000000000006F
:10613000000000000000000000000000000000005F
:10614000000000000000000000000000000000004F
:10615000000000000000000000000000000000003F
:10616000000000000000000000000000000000002F
:10617000000000000000000000000000000000001F
:10618000000000000000000000000000000000000F
:1061900000000000000000000000000000000000FF
:1061A00000000000000000000000000000000000EF
:1061B00000000000000000000000000000000000DF
:1061C00000000000000000000000000000000000CF
:1061D00000000000000000000000000000000000BF
:1061E00000000000000000000000000000000000AF
:1061F000000000000000000000000000000000009F
:10620000F1EE103A43F08073E1EE103A704700BFB0
:1062100010B5054C237833B9044B13B10448AFF3E0
:1062200000800123237010BDC06400200000000026
:1062300034AA040008B5034B1BB103490348AFF36C
:10624000008008BD00000000C464002034AA0400DF
:10625000154B002B08BF134B9D46A3F5803A002138
:106260008B460F461348144A121A20F03FFA0F4B80
:10627000002B00D098470E4B002B00D098470020F1
:10628000002104000D000D48002802D00C48AFF397
:10629000008020F0CFF9200029001DF0BFFE20F083
:1062A000A3F900BF00000800000004200000000067
:1062B00000000000C064002000A4002000000000D6
:1062C00000000000014902481BF068B8E89404008F
:1062D0009C660020204B70B501221A701BF0BCFB9D
:1062E0001E4A1F4914781F4BD6791F4D61405478C0
:1062F00003FB01F14C40917803FB04F46140D47836
:1063000003FB01F14C40117903FB04F46140547923
:1063100003FB01F14C40917903FB04F24A4003FB7B
:1063200002F27240114C124E124903FB02F3A4FB1D
:106330000324640B43F2C82202FB143303F5FA640E
:106340000319284633601AF0CBFF214628460A225B
:10635000BDE870401BF038B929650020446000207A
:10636000C59D1C81930100019C66002031C351A191
:106370002C6500200095040038B5064D06490446FA
:1063800028461AF0ADFF054B2846195DBDE8384098
:106390001BF054B89C6600202C9504003C9504002A
:1063A00038B5064D0649044628461AF099FF61792A
:1063B00028460A22BDE838401BF038B99C66002008
:1063C00040950400000000002DE9F04F2DED048BF6
:1063D000A9B0002134221BA820F088F91BF03CFB57
:1063E000002305460DF11901BF488DF81930ADF8AD
:1063F0001A300AF001F8002840F094810024059436
:1064000000940226B94809F08DFE002840F04B8127
:106410008246B74809AA12A906F0B4FADDED177A48
:106420009DED0E8AF5EEC07AF1EE10FA40F3388158
:1064300017EE900A1FF04EFBAE4B002280468946B5
:106440001FF0A0FB02460B4643EC192B0022002351
:106450001FF014FE002840F09881A1A3D3E9002387
:10646000404649461FF014FE002840F0A581B0EEDA
:10647000490AF0EE690A1AF033FB0390DFED9E7AC9
:106480009FED9E0AB4EEE78AF1EE10FA28EE000ABC
:1064900040F2A681DFED9A7AB4EEE78AF1EE10FAC7
:1064A00080F280811AF05CFC06B244F00404A4B2CD
:1064B000944805F039FFB5EEC00AF1EE10FAC0F2CB
:1064C000EC8010EE100A1FF005FB8A4B002280467C
:1064D00089461FF057FB02460B4643EC182B00225F
:1064E00000231FF0CBFD002840F056817CA3D3E9A8
:1064F0000023404649461FF0CBFD002840F058815C
:10650000B0EE480AF0EE680A1AF0EAFA049044F095
:106510000804A4B27C4907A805F032FD9DF9227059
:10652000DDED077AC7BBF5EEC07AF1EE10FAC0F2E6
:106530002A8117EE900A1FF0CDFA6E4B002280469A
:1065400089461FF01FFB02460B4643EC182B002226
:1065500000231FF093FD002840F0398160A3D3E9A8
:106560000023404649461FF093FD002840F031814A
:10657000B0EE480AF0EE680A1AF0B2FA8046634FAD
:1065800044F010043846A4B207F0D4FB60B90346C7
:106590000246834681463EE04FF000085B4F384696
:1065A00007F0C8FB0028F2D0D7ED007A9FED527AB1
:1065B0009FED520AF4EEC77AF1EE10FA27EE800A48
:1065C00040F210819FED4E7AF4EEC77AF1EE10FAA8
:1065D00080F2EB801AF0C4FB0FFA80F9D7ED027A53
:1065E0009FED460A27EE800AB5EEC00AF1EE10FADA
:1065F00040F2D5809FED467AF4EEC77AF1EE10FABC
:1066000080F2E2801AF0ACFB1FFA80FB44F0200419
:106610007A68FB68A4B20A20CDE901231EF002FDCE
:10662000009BADF87430059BADF87630039B1F934B
:10663000049B019AADF88060A0F1010CCDE92138EE
:10664000BCFA8CFC029B1C9544F040044FEA5C1C95
:10665000ADF89C408DF898C0ADF88C90ADF88EB038
:1066600024922593ADF878A01BAC0FCC294D2A4E6F
:106670002A4F0FC50FCC0FC50FCC0FC5236832783A
:106680002B8001233B701AB9254A337082F800C071
:1066900029B0BDEC048BBDE8F08F0023049339E7EB
:1066A0000026039604E7114809F018FEDFED137A7F
:1066B00060EE277AF5EEC07AF1EE10FA40F28080B3
:1066C0009FED137AB4EEC70AF1EE10FA60DAB0EE7D
:1066D000670A1AF045FB34461FFA80FA99E600BFB4
:1066E0009A999947E17A84414466002054660020D3
:1066F00068650020000059400AD7A3C30000C842C3
:10670000C3D5A3438866002040660020A46500200E
:1067100066D62344E864002020650020DC64002065
:106720002865002032480DF11A0109F0EDFE00281D
:106730003FF464AEBDF81A309DF81970DFED2D6A94
:1067400007EE903AF8EEE77A07EB870707EB870743
:10675000F4EEE67AB2EE047ABB00F1EE10FA27EE20
:10676000877A009341D9DFED246AF4EEE67AF1EE00
:1067700010FA31DABDEEC77A17EE103A1BB2059364
:10678000032601243EE6B84608E70023039375E696
:106790004FF6FF7A34463CE600230493B7E64FF009
:1067A000000B33E747F6FF767FE647F6FF7915E7FC
:1067B0004FF0FF330493AAE64FF0FF3303935DE6F7
:1067C0004FF0000A344624E64FF6FF7B1EE7B8463A
:1067D000D5E64FF0FF38D2E647F6FF730593CFE7D3
:1067E000064E62E6DFF81490F8E6044B0593C7E71F
:1067F00044660020CDCC4CC533CB4C450080FFFF18
:106800002DE9F04FD64B2DED048B1B7809EE900A45
:106810008BB0002B00F00882D24DD348AF89B5F978
:106820000A600397B5F920700268E98D2B8E0496F3
:106830000297D5E909762C89B5F822C0079402F1B0
:10684000010BB5F91440D5F8108095F82C900194FF
:1068500008EE901A09EE103A49BA5BBAD5E9064A31
:10686000CDF814C0069609910893C0F800B01BF04B
:10687000F3F80546BD48079B049A0399019E0675E7
:106880004FEA1B6C80F801C04FF0020C80F800C08A
:106890004FEA1B4C80F802C04FEA1B2C80F803C063
:1068A0004FEA156C80F805C04FEA154C80F806C019
:1068B0004FEA152C80F807C04FEA232C80F809C056
:1068C000C2F3072C80F80BC04FEA212C029E80F8FF
:1068D0000DC04FEA186C867780F80FC0019E837256
:1068E0004FEA184C80F810C04FEA182C80F811C0FD
:1068F000C6F3072C80F813C04FEA146C80F815C05B
:106900004FEA144C80F816C04FEA142C02738173BE
:1069100080F804B0057280F81280047680F81CA01C
:1069200080F817C04FEA1A6C029E80F819C04FEA2F
:106930001A4C059B80F81AC04FEA1A2C80F81BC02D
:10694000C6F3072C069A80F81DC080F820304FEA65
:10695000232C089B099980F81FC083854FEA176C88
:106960003B0A418580F821C0390C4FEA126C80F84F
:106970002330130A80F8221080F825C0110CB9F1D9
:10698000000C80F827307A4B80F8261018BF4FF0A3
:10699000010C40F22E2180F8247080F8282080F825
:1069A00029C099800EF090FA012800F040814FF044
:1069B000FF337049704808931AF092FC0A22594636
:1069C0006D489FED6E8A1AF0EBFD6D496A481AF02A
:1069D00087FC19EE901A68481AF082FC69496648EB
:1069E0001AF07EFC0A22294663481AF0D9FD66494E
:1069F00061481AF075FCDDED077AF8EEE77A67EE8C
:106A0000887A17EE900A1FF065F841EC100B02210E
:106A100059481AF093FC5D4957481AF061FCDDEDC6
:106A2000047AF8EEE77A67EE887A17EE900A1FF09C
:106A300051F841EC100B02214F481AF07FFC5449E9
:106A40004D481AF04DFCDDED037AF8EEE77A67EE7B
:106A5000887A17EE900A1FF03DF841EC100B0221E6
:106A600045481AF06BFC4B4943481AF039FC0A229E
:106A7000414641481AF094FD47493F481AF030FC1E
:106A8000DDED017AF8EEE77A67EE887A17EE900A84
:106A90001FF020F841EC100B022137481AF04EFC91
:106AA0003E4935481AF01CFC07EE904AF8EE677A2A
:106AB00067EE887A17EE900A1FF00CF841EC100B85
:106AC00002212D481AF03AFC35492B481AF008FCEF
:106AD00007EE90AAF8EE677A67EE887A17EE900ACA
:106AE0001EF0F8FF41EC100B022123481AF026FC9F
:106AF0002C4921481AF0F4FBDDED027AF8EEE77A32
:106B000067EE887A17EE900A1EF0E4FF41EC100B56
:106B1000022119481AF012FC234917481AF0E0FB29
:106B2000DDED057AF8EEE77A67EE887A17EE900ADF
:106B30001EF0D0FF41EC100B02210F481AF0FEFBB3
:106B40001A490D481AF0CCFB39460A220A481AF0B5
:106B500027FD174908481AF0C3FB06992AE000BF31
:106B6000DC640020E8640020E0640020346500203C
:106B700028600020509504009C6600200AD7233C22
:106B8000609504006C9504007895040084950400D9
:106B900094950400A0950400AC950400BC950400F5
:106BA000D0950400E0950400F095040004960400DC
:106BB0001896040021480A221AF0F2FC20491F48C6
:106BC0001AF08EFB49460A221C481AF0F5FC1D49B2
:106BD0001A481AF085FB18EE901A0A2217481AF084
:106BE00055FD194915481AF07BFB19EE101A1022B1
:106BF00012481AF04BFD154910481AF071FB144A5F
:106C00000E4811780A221AF041FD12490B481AF079
:106C100067FB089B094819460A220BB0BDEC048BA0
:106C2000BDE8F04F1AF096BCFFF7CEFBF4E50A483A
:106C300000210EF057F90346BBE600BF9C6600201A
:106C400028960400349604004496040050960400EC
:106C5000296500205896040028600020F0B54FF404
:106C6000E13185B0934800F0F9FB4FF4FA601AF077
:106C7000FFFE91498F481AF091FB90498D481AF018
:106C80008DFB8F498B481AF02BFB0A2243F6982183
:106C900088481AF099FC8B4986481AF021FB0A2291
:106CA00043F6982183481AF08FFC874981481AF0EF
:106CB00017FB0A2200217F481AF086FC01212220BE
:106CC0001EF00EF9012122201EF08EF94FF4FA7009
:106CD0001AF0CEFE7D4804F0C9FE44217C4805F040
:106CE00021F94CF210617A4805F026F977490746F8
:106CF000784805F0D3F90446002840F08280734AB2
:106D0000754800235D2105F047FD0646002840F048
:106D1000BE8072480122762106F07CFF002879D1DE
:106D20006F4809F08BFA002840F0B6806D480121C9
:106D300009F070FC00210A201EF0D2F86A496B4C61
:106D40005C481AF02BFB09F095FD2578684A694BE1
:106D500061786A4003FB02F25140A278E57803FBB8
:106D600001F14A4003FB02F255402279617903FBAD
:106D700005F56A4003FB02F25140A279E57903FB75
:106D800001F14A4003FB02F26A4003FB02F3584060
:106D90001AF04EFEFFF718FB1AF05EFE5649574AEE
:106DA00000F56A53183300F57A700B60106009F033
:106DB000F1FC20460DF0FEFD51480DF003FE514858
:106DC0000DF008FE504A51480023CDE901330093ED
:106DD00006CA01230DF0AAFE044668B14C493548A5
:106DE0001AF07EFA334821460A221AF0EDFB4FF4DE
:106DF0007A701AF03DFEFAE705B0BDE8F0400EF0FB
:106E000007B80021334805F0B3F90321314805F0F4
:106E100081F974E70421314807F010F802212F4866
:106E200007F01CF803212D4807F028F802212B4811
:106E300007F034F8294896224FF4A07106F0E6FFD7
:106E4000274809F0FBF900283FF470AF24480121DE
:106E500009F0D6F92248012109F084F920480421DB
:106E600009F096F91F48012109F0D4FB002F14BF47
:106E7000002404F0010400210A201EF031F8002C47
:106E80003FF45CAF002E3FF459AF224957E7124858
:106E9000022105F0FFFB3CE71148012109F0B0F9A0
:106EA0000F48012109F05EF90D48042109F070F93D
:106EB0003CE700BF9C660020A0960400AC9604004E
:106EC000D4960400F096040010970400E4720020A9
:106ED000406600208866002068650020A4650020C8
:106EE0005466002044660020689604004460002038
:106EF000C59D1C81930100011C65002030650020A8
:106F00003866002034600020709704000460002080
:106F10002497040088960400F8B51AF09DFD524AA3
:106F20001368C31A002B04464DDB00F57A730A2060
:106F300013601EF077F84D4BA0F101061A78B6FAEF
:106F400086F67609002A77D0494B1A78B2423AD0B1
:106F5000484A127832B1484A118E82F82C6041F0CA
:106F600040011186454D1E702B786BB30DF0ACFFC0
:106F7000012829D1424B1B682BB1E31AA3F56A53B0
:106F8000183B002B20DB41F2893100201AF054FD20
:106F90003C4F3D4A3D49034623443B603C48012366
:106FA00013701AF09DF931460A2239481AF004FB91
:106FB000384937481AF094F939683548091B0A22CC
:106FC0001AF002FB00E02D4D334E3368E31A002B1C
:106FD00006DA2B789BB9BDE8F8400A201AF048BDC4
:106FE000FFF7F2F9336843F698200344E11A0029C9
:106FF0001A460344FADA2B783260002BEBD00DF0FE
:1070000063FF01280546E6D1244E3368E31A002BBE
:1070100018DA1D4D2B78002BDDD01A4B1B68E31AB4
:10702000002BD8DBFFF7D0F91D48FFF7E9FB144A26
:10703000002314602B70CEE70D4A104D167001220C
:107040001A70C1E7FFF7C0F91648FFF7D9FB2946C8
:1070500000201AF0F1FC00F56A500B4B1830204468
:10706000002230601A70B6E73065002020650020ED
:1070700028650020DC640020E864002029650020E9
:107080002465002064650020E46400203497040037
:107090009C660020509704001C6500202C65002091
:1070A000689704006097040010B50F480F4C04F077
:1070B00037FF0F4804F0DEFF204605F059FB0D4B6B
:1070C0000D4A0E49236020461FF056FA0C490D4820
:1070D00006F098FD0C4809F005F8BDE810400B4893
:1070E000202109F079B900BF4066002068650020C2
:1070F00088660020289904000060002015C5020061
:10710000E4720020A465002054660020446600203C
:107110000146014800F042BABC66002038B500F0D4
:1071200097F940B1002405462046013400F0B6FD31
:10713000E0B28542F9D838BD70B592B01D460C4614
:10714000164601A8422200211FF0D0FA412D5CD939
:10715000631C0222DBB28DF806408DF80E408DF8DC
:10716000264040F6083540F202248DF81E308DF896
:1071700027308DF83130ADF804508DF807208DF8A8
:1071800012208DF833208DF83B20ADF80840204ABE
:10719000069240F2012505232424ADF810508DF805
:1071A00015308DF8164004231A4C8DF81F30012538
:1071B00040F224628DF81C508DF830300894ADF800
:1071C0002420154D0A9508234FF411640A228DF8E6
:1071D0002C30ADF82E4040238DF834200F4C8DF824
:1071E0003C3001A9304640F2075540F209464222A0
:1071F000ADF80C60ADF838508DF84330CDF83F4015
:107200001FF04CFA422012B070BD002012B070BDC9
:1072100020010524240202050705800307058002DA
:10722000007EFF280AD010B500F0E6FC044608B145
:10723000204610BD1DF09CFB204610BD002070476D
:10724000007EFF280ED000B583B00DF1070100F0DD
:107250001BFD20B19DF8070003B05DF804FB4FF063
:10726000FF30F9E74FF0FF30704700BF007EFF2886
:107270000FD000B583B001220DF1070100F0C8FC6A
:1072800020B19DF8070003B05DF804FB4FF0FF301C
:10729000F9E74FF0FF307047007EFF2801D000F083
:1072A000FDBC7047007EFF2801D000F057BD0020D4
:1072B000704700BFF8B50646007EFF281CD0174671
:1072C0005AB10D46144600F071FC2946224680B1A1
:1072D000307E00F027FD241A01D13846F8BD054460
:1072E0001DF046FB307E00F061FC29462246002856
:1072F000EED13F1B3846F1E70020F8BD70B50368BA
:10730000184A5B6882B093428DF8071021D1054678
:10731000007EFF2823D000F049FC0DF10706012470
:107320003146224688B1287E00F0FCFC241A02D1A6
:10733000012002B070BD06441DF01AFB287E00F04B
:1073400035FC314622460028EDD1C4F1010002B0DF
:1073500070BD01220DF10701984702B070BD0020F9
:1073600002B070BDB572020070B592B01D460C46F9
:10737000164601A8422200211FF0B8F9412D5CD920
:10738000631C0222DBB28DF806408DF80E408DF8AA
:10739000264040F6083540F202248DF81E308DF864
:1073A00027308DF83130ADF804508DF807208DF876
:1073B00012208DF833208DF83B20ADF80840204A8C
:1073C000069240F2012505232424ADF810508DF8D3
:1073D00015308DF8164004231A4C8DF81F30012506
:1073E00040F224628DF81C508DF830300894ADF8CE
:1073F0002420154D0A9508234FF411640A228DF8B4
:107400002C30ADF82E4040238DF834200F4C8DF8F1
:107410003C3001A9304640F2075540F2094642226D
:10742000ADF80C60ADF838508DF84330CDF83F40E2
:107430001FF034F9422012B070BD002012B070BDB0
:1074400020010524240202050705800307058002A8
:10745000014B1878704700BFB8660020037EFF2BF1
:1074600002D1074B1A7802B1704706490276416192
:10747000012200F1100104481A7000F02FB800BF7B
:10748000B866002078970400BC66002001B900B1FE
:10749000704700B583B0694600F09EFB009BB3F5D2
:1074A000966F02D003B05DF804FB00F02BFBF9E708
:1074B00030B4084B084AFF2002F108054FF47A74F3
:1074C0000021303218761D609C601A6130BC596012
:1074D000596170479C66002088970400F8B50546FE
:1074E000B0F818016C69B5F81A310A680E46044400
:1074F0001B1A176895F81C119BB222463046B847F4
:1075000050B3221894423CD2766806E0052B25D071
:1075100023780BB31C44A24233D96378042BF5D1F2
:10752000E378002BF4D195F81C11013185F81C117A
:10753000002EEDD095F840110729E9D801F1480750
:1075400045F82760217295F84011013185F8401106
:107550001E462378002BDDD10020F8BD94F90230BF
:10756000002B08DB95F81E31591C85F81E11A178F7
:107570000B43A370CCE795F81D31591C85F81D11FC
:10758000F5E7B5F818216B69104480B2A5F8180129
:10759000588095F81C211A710120F8BD2DE9F0439F
:1075A000284DDFF8B090AC4604468846BCE80F0092
:1075B00089B003AF0FC703AE0FCE05F1140E2546F9
:1075C0000FC59EE80700DCF800303B806B4636684C
:1075D0002E8003C36B4603CB1B4EA06104F118033E
:1075E0004FF4807C0125E16184F82020636140F242
:1075F000EF2200231548C4F8189140F209470421EE
:10760000A4F81CC1C4F8280184F84011A280C4F871
:107610002C31C4F83031C4F83431C4F83831C4F8EE
:107620003C314FF4E131C4E94876094884F81E51F1
:10763000A571FFF713FF404600F052FA284609B043
:10764000BDE8F083F0970400BC970400C8970400DD
:107650009C660020090000012DE9F04F04468BB024
:10766000002900F09180032900F09C8090F84031BF
:107670008B4240F2CB80483100F5A27550F8216072
:107680003278002A00F0E78000231946374603E0ED
:107690000131725C7718CAB102F14000C0B2012812
:1076A000F6D9F42AF4D8100618D40120A2F55847C8
:1076B000B7F5006FECD30144202B00F0C98025F80A
:1076C0001320725C01337718002AE5D1DBB2013355
:1076D0005B0043F4407304F5A17C5DE002F0E00040
:1076E000C02800F0A18002F0F000E02800F09180B6
:1076F00002F0F800F028CBD102F007024FF0040EA0
:10770000787800F0C00CBCF1800FC1D197F802C0AE
:107710000CF0C00800F03F00B8F1800F40EA821280
:10772000B6D10CF03F0CBEF1030F4CEA821275D0BB
:10773000F87800F0C007802FAAD100F03F0040EA9F
:107740008212A2F58030B0F5801F38BF4FF0040ED2
:107750009ED2A2F55840B0F5006F99D3B2F5803FA4
:107760007144A9D31E2BB1DCA2F580325800970AD0
:107770002844C2F30902A7F52057A2F5105225F8B4
:1077800013704280023384E7D0F82031A0F84431EE
:1077900000F5A17C4FF44173A4F8423160460BB070
:1077A000BDE8F08F02A800F0AFF904F5A17C0190CC
:1077B00020B300F1FF3B5FFA8BF3284F04F1040B79
:1077C0000DF1080A0BEB830BA64606AE97E80F00F7
:1077D0001AF8018B86E80F0008F00F090AADA944DA
:1077E00005EB181819F8109C18F8103CAEF84691E3
:1077F000AEF844310EF1040EDE45E7D1019B5B008B
:10780000DBB201335B0043F44073C5E74FF0000C7B
:10781000C4E702F00F024FF0030E71E7A2F500601B
:10782000B0F5784F95D333E7787800F0C007802F14
:1078300002F01F027FF42CAF00F03F0040EA8212FA
:10784000A2F18000B0F5F06FBFF422AF02202DE767
:1078500040F242333FE740F202333CE7DC9704005A
:1078600000487047BC660020014B5869704700BF54
:10787000BC6600200A4601460148FFF7EDBE00BF86
:10788000BC660020024B186800B10069704700BF59
:107890004068002030B40848BDF80850046844B17E
:1078A000646934B10846A44611461A462B4630BCDA
:1078B0006047002030BC70474068002030B4084862
:1078C000BDF80850046844B1A46934B10846A44620
:1078D00011461A462B4630BC604730BC704700BF8B
:1078E0004068002000207047024B186808B190F8EB
:1078F00050007047446800202DE9F047244C25686B
:10790000002D42D01F4600EBC00305EB8303044665
:10791000D3F818A089469046C600BAF1000F30D0BF
:1079200050461FF015FE0828024628BF082234449E
:1079300005EB8405D5E90764DFF85CC0154B002E24
:1079400008BF664651464846002C08BF1C461EF03C
:10795000A5FE30461FF0FCFD10280246314628BF28
:10796000102240461EF09AFE20461FF0F1FD04282A
:1079700002462146384628BF0422BDE8F0471EF0E3
:107980008DBEDFF818A00822D1E7BDE8F08700BF60
:10799000446800202C9804001C98040010980400EF
:1079A000F8B50B4F3B688BB100EBC00503EB8505C9
:1079B00004466A69C6001AB190473B6885F82A00F8
:1079C000344403EB840393F82A00F8BD1846F8BD4D
:1079D00044680020074B1B685BB100EBC00003EB61
:1079E000800010B4038D446A0C605DF8044B138072
:1079F00070477047446800200A781E2A01D1002091
:107A0000704710B520221C460521002300F078FFA6
:107A1000204610BD30B4094C029A256855B1044681
:107A200004EBC40405EB840408461946A3680BB1B3
:107A300030BC18474FF0FF3030BC7047446800201E
:107A400030B4094C029A256855B1044604EBC404CD
:107A500005EB840408461946E3680BB130BC1847AF
:107A60004FF0FF3030BC704744680020054B1B6866
:107A700033B100EBC00003EB8000036903B118478A
:107A8000704700BF4468002000B5104B402283B00F
:107A900083F8272303F030FF4FF080430024D3F80E
:107AA00038548DF8004068461CF00AFB084B0193DF
:107AB00001A81CF031FB1CF03BFBEB0702D401F0EA
:107AC00009FFFCE7204603F053FDF8E700E100E082
:107AD000D57A020003F04CBD002003F029BA00BFA4
:107AE00000B5002383B00322CDE9002303490448F5
:107AF000C8221AF0A7FF03B05DF804FB3098040019
:107B0000897A02001DF0E4B94FF08052536E1BBA1F
:107B10000360136E1BBA436008207047004870472B
:107B20003898040070B51F4D2B68B3B199B914781B
:107B3000C4F34114012C0BD0022C07D15478012C32
:107B40000DD0022C07D19388072B21D0084670BD99
:107B5000517822290CD0012070BD184670BDDC6917
:107B6000F4B1237811462246BDE8704002F070BEA1
:107B70005188003918BF01211976114602F04EFED6
:107B80002A68136A002BE6D0107E9847204670BD05
:107B9000054C114623892246BDE8704002F058BECC
:107BA000204670BD486800204C60002010B5044697
:107BB00001F0ECFD08B9002010BD01F0EFFD002838
:107BC000F9D104484FF45A7303FB0400007900F024
:107BD000010010BD4C680020064B4FF45A7202FBA6
:107BE000003050F8063F0B60838882798A718B8061
:107BF000704700BF4C68002008B5044B4FF45A7220
:107C000002FB0030103001F025FC08BD4C6800205C
:107C10002DE9F0414FF45A7505FB00F5194F05F1B8
:107C200010043C4492B2204601F040FC0646204637
:107C300001F02AFC3F2802D83046BDE8F08107EB6E
:107C40000508002098F8031002F01EFD0028F3D06C
:107C5000204601F019FC3F280BD905F53A7298F837
:107C600003103A444023002002F072FD3046BDE884
:107C7000F08198F80310002002F03EFD3046BDE888
:107C8000F08100BF4C680020034B4FF45A7202FB96
:107C90000030103001F07CBC4C6800202DE9F04130
:107CA000044601F073FD10B90020BDE8F08101F039
:107CB00075FD06460028F7D14FF45A71DFF8608051
:107CC00001FB04F404F12C054544284601F0C2FBF5
:107CD0000028E9D008EB04073046B97802F0D4FC5C
:107CE0000028E1D004F54A74444428462146402245
:107CF00001F0DCFB054660B1B978224630462B46E0
:107D000002F026FD40B9054B1B68DB07CCD500BE51
:107D1000CBE7B97802F0F0FC2846C6E7F0ED00E0CA
:107D20004C68002038B50C4B4FF45A7404FB0034F7
:107D30002C3492B20546204601F06AFC03462046E8
:107D40001C4601F087FB3F2801D8204638BD284655
:107D5000FFF7A4FF204638BD4C68002008B5044B4F
:107D60004FF45A7202FB00302C3001F08DFB08BD3D
:107D70004C680020F0B51C4C83B000214FF45A72BF
:107D8000204601250E461EF0B1FCFF234FF442426F
:107D900004F148016371E2802B460827009604F144
:107DA00010004FF4807227732581668101F016FB65
:107DB0002B464FF4807204F5A471009504F12C0059
:107DC00001F00CFB04F5127128461AF0E1F804F5F5
:107DD000267103462846C4E909631AF0D9F8C4E9B4
:107DE000100603B0F0BD00BF4C68002010B5094B71
:107DF000002203F12C0403F110001A601A7101F043
:107E00007DFC204601F07AFC20460121BDE81040AF
:107E100001F09CBC4C6800202DE9F0414B79022B0D
:107E200082B002D18B79022B04D00025284602B003
:107E3000BDE8F081314FBB782BB1314B1B68DB07BC
:107E4000F3D500BEF1E78B783B700C780C44064606
:107E5000617824294FF009050BD1082A02D80FE0D8
:107E6000AA420DD323781C442B44617824299DB267
:107E7000F6D005291BD0042902D163790A2B28D01A
:107E8000204801F001FB3F28D0D9F978002002F00A
:107E9000FBFB0028CAD01B4801F0F6FA3F28F9780E
:107EA00013D9194A4023002002F052FCBEE72146B4
:107EB000304602F0C9FB0028BFD0A3787B7023783E
:107EC0001C442B4461789DB2D5E7002002F014FCDD
:107ED000ACE70E4A94F8008001920223013200922E
:107EE000304604EB08011A4602F03AFB0028A4D001
:107EF00005F10E0318FA83F39DB2C1E74C68002028
:107F0000F0ED00E05C680020346B00204E6800203B
:107F100038B5137803F06003202B0CD1264C9388DE
:107F200025789D4207D15378203B032B03D8DFE807
:107F300003F009151E04002038BD71B3022931D0A9
:107F4000012038BD61B10229FAD11C4B002BF7D0BA
:107F50001B490020AFF30080012038BD0029EFD17C
:107F600011460723164A02F073FC012038BDA1B167
:107F70000229E5D15588257105F00104114884F0E6
:107F8000010101F0E3FB104B002BD9D0C5F34002F7
:107F900021460020FFF77AFAD2E7114602F03EFCB4
:107FA000012038BD094B002BCAD051880020AFF307
:107FB0000080012038BD00BF4C6800200000000098
:107FC00052680020786800208D74020000000000D4
:107FD0002DE9F047574DEA788A420C4607461E467F
:107FE0005CD19AB205F53A7105F1100001F010FB71
:107FF000514BD3B16B79FF2B17D0B6B105F2E728FF
:1080000008EB060AA8F2D72902E0D0450DD06B791B
:1080100018F8012F9A42F8D1484601F02BFA0028AF
:10802000F3D16979AFF30080EFE7444B23B14448C3
:1080300001F020FA002870D0414801F025FA3F28CD
:1080400005D9E978002002F01FFB002858D1AB7851
:108050009C4203D001242046BDE8F087394B13B180
:108060000020AFF3008001F091FB20BB364801F007
:10807000F1F90028EED1002EECD016F03F06E9D140
:10808000A978384602F000FB04460028E2D0A9781F
:1080900038463346324602F05BFBDCE7AB788B4276
:1080A000DCD02A4B1C6814F00104D4D000BE00249C
:1080B0002046BDE8F08701F071FB04460028D5D1C9
:1080C000214801F0C7F90028D0D0A978204602F055
:1080D000DBFA0028CAD01E494022A1F53F7001F00A
:1080E000E5F9034608B31A4AA978204602F030FBA6
:1080F0000028AFD1154B1B68DB07B7D500BEB5E72D
:108100000F4801F0C1F93F280AD94023114AE97804
:10811000002002F01DFBAB789AE7AFF300808BE7FD
:10812000E978002002F0E8FA91E7A97802F0E4FA91
:108130009CE700BF4C680020000000000000000029
:108140005C6800200000000078680020F0ED00E08E
:10815000746B0020346B002002488C2200211EF03A
:10816000C5BA00BFB46B002002488C2200211EF06B
:10817000BDBA00BFB46B00202DE9F0414B79032B51
:1081800082B011D10F79C7EBC7051235ADB2954258
:108190000C4604D8DFF89C8098F8011049B1234BB5
:1081A0001B68DA0700D500BE0025284602B0BDE8EE
:1081B000F08194F800C004EB0C0292F801E0BEF1EB
:1081C000210FECD1C8F8882014F80C1008F1010E2A
:1081D00008F1020C1144CDE900CE3A46064602F001
:1081E000BFF90028DBD0A37998F80210012B04BF57
:1081F000E37988F803300122D8F8883088F8042021
:10820000A278B3F8073088F80020A8F806300029D3
:10821000CBD0074A3046402302F09AFA0028C4D156
:10822000024B1B68DB07C0D500BEBEE7F0ED00E0E7
:10823000FC6B0020B46B0020F0B51446127802F0FD
:108240001F05012D83B00FD10B467149A78891F806
:1082500000C0FFB2BC4507D112F06002064606D14D
:1082600083BB6278062A30D0002003B0F0BD202AFC
:10827000FAD16278013A0A2AF6D801A050F822F021
:1082800055830200418302002D83020069820200AF
:10829000698202006982020069820200698202002A
:1082A00015830200EF820200AD82020063B3022B4D
:1082B00008D16388574ADBB20B711AB11946002006
:1082C000AFF30080012003B0F0BD6288120A212ABA
:1082D00065D0222AC8D11846FFF7D4FA4C49024685
:1082E000CB883046214602F0B3FA2846BDE7002B82
:1082F000E8D162884848120A4A7128B111461846E6
:10830000AFF300800028AFD02146304602F086FA55
:108310000120AAE7002B4ED1E388402BA4D83F4A86
:108320002146304602F094FA01209EE7002BC9D185
:108330003B4A21463046012302F08AFA012094E7A5
:10834000002BBFD1374A21463046012302F080FA84
:1083500001208AE7002BB5D1E5886088402D4FEADF
:1083600010222F4628BF402710F0FF003ED0012DDD
:1083700046D9013F08722C49BFB201250B46009730
:1083800001460020FFF786FA2B189BB28BBB274AC9
:108390001268D2077FF568AF00BE184665E7D1F8CE
:1083A0008820002A3FF460AF1378214603B0BDE86F
:1083B000F04002F04DBA022B84D1E5886388402D4D
:1083C0002C4628BF402413F0FF004FEA132205D0AB
:1083D000012D03D991F84830834214D00F4B0094FB
:1083E00001460020FFF76AFA01203EE710491D46CA
:1083F000C4E70F4A2146304602F02AFA012034E74A
:108400000B491D46BAE7013C0A4BA4B2E7E700BF9F
:10841000B46B00200000000000000000FC6B002096
:10842000B86B0020B96B0020BD6B0020F0ED00E0C0
:10843000BC6B0020FD6B002030B51C4CA2788A423A
:1084400083B00CD16178914217D1194A22B11949F0
:10845000DAB20020AFF30080012003B030BD6278B3
:108460008A42F2D0144B1B68DB0703D500BE002004
:1084700003B030BD002003B030BD00229BB21146D6
:1084800005460093104604F14803FFF717FAA17858
:108490002846402304F1480202F05AF90028DBD1B3
:1084A000054B1B68DA07E5D500BED6E7B46B0020A4
:1084B00000000000BC6B0020F0ED00E070B500F1A2
:1084C0002C050446284600F0C5FF08B9002070BD01
:1084D0006178002002F0D8F80028F7D004F50A7679
:1084E00028463146402200F0E1FF054660B10346D0
:1084F00061783246002002F02BF940B9054B1B6829
:10850000DB07E3D500BE70BD617802F0F5F82846C0
:1085100070BD00BFF0ED00E030B5164C83B0002117
:108520000D464FF41A7220461EF0E0F804F148019F
:1085300004F1100000950123802200F04FFF8022FB
:1085400004F1C8010123009504F12C0000F046FF5E
:1085500004F5A471012019F01BFD04F5CC7103464C
:108560000120C4E9095319F013FDC4E9100503B053
:1085700030BD00BF68A1002010B5084C002304F1F5
:108580001000C4E90033C4E9023301F0B7F804F184
:108590002C00BDE8104001F0B1B800BF68A1002078
:1085A0002DE9F0434B79012B83B002D18B79012B5C
:1085B00004D00025284603B0BDE8F083CB79002B1A
:1085C000F7D10B78CC1806466578242D99B20BD1DB
:1085D000914202D9EDE78A42EBD323781C440B4445
:1085E0006578242D99B2F6D0042DE2D16379012B60
:1085F000DFD1A379032BDCD1E579002DD9D1DFF8C8
:10860000CC8098F8010098F8023050EA030905D0B0
:108610002B4B1B68DB07CCD500BECBE7A37888F8D3
:10862000003027782079CB199DB2274430B922E059
:108630003B7881451D44ADB21F441CD2AA421AD3D7
:108640007B78052BF4D139463046019201F0FCFFCE
:10865000019A68B3BB782079D90914BF88F8013032
:1086600088F80230397809F101030D445FFA83F983
:10867000ADB20F44DCE7134800F006FF3F2899D95C
:1086800098F80210002001F0FFFF002892D00D485A
:1086900000F0FAFE3F2898F8021005D90A4A402354
:1086A000002002F055F885E7002002F025F881E768
:1086B000034B1B68DA077FF57CAF00BE054679E700
:1086C000F0ED00E078A1002050A3002068A1002078
:1086D00000207047F8B52D4DAA788A421E4619D160
:1086E0009AB205F5F47105F1100000F091FF284BE6
:1086F00013B10020AFF30080264800F0C5FE3F28EC
:1087000005D9A978002001F0BFFF044668BB012409
:108710002046F8BD6B788B4208D01F4B1C6814F0C4
:108720000104F5D000BE00242046F8BD07462846C7
:10873000FFF7C4FE0028EAD105F12C0000F08AFE04
:108740000028E4D1002EE2D016F03F06DFD1697890
:10875000384601F099FF04460028D8D06978384699
:108760003346324601F0F4FFD2E70A4800F08CFEAF
:108770003F28A97805D9094A4023002001F0E8FFE5
:10878000C6E7002001F0B8FFC2E700BF68A10020E3
:108790000000000078A10020F0ED00E050A30020D0
:1087A00070B52E4CE28AA36852BA92B282B00546E6
:1087B00012B1B3FBF2F292B2A06BD4F81110B0FB7D
:1087C000F2F61B1AB3F5007F28BF4FF4007309BA05
:1087D000009302FB1602224B607B3144FFF71AF92B
:1087E000031E13DB09D094F82E101D4A9BB22846B5
:1087F00001F0AEFF58B302B070BD94F82E10009394
:1088000028461A4601F078FE02B070BDA268A36B3C
:1088100043F203300021D31AA08784F83E100120D0
:108820000221A36284F82C0084F83010002AE2D0E0
:10883000002BE0D0237BDB0914BF94F82E1094F8B2
:108840002F10284602B0BDE8704001F0BDBF054BB7
:108850001B68DB07CFD500BECDE700BF406E002010
:10886000406C0020F0ED00E038B5214B214C05466E
:108870001BB1607BAFF30080B0B1A06BA36894F82C
:108880002F101D4A1B1AB3F5007F28BF4FF4007349
:1088900028469BB201F05CFF00B138BD174B1B6846
:1088A000DB07FAD500BE38BDA26BA16884F83E0094
:1088B0008B1A42F207720120A2870222A36284F877
:1088C0002C0084F830200029E7D0002BE5D0237B52
:1088D000DB0906D094F82E102846BDE8384001F098
:1088E00073BF94F82F102846BDE8384001F06CBFE4
:1088F00000000000406E0020406C0020F0ED00E021
:10890000044880F83C1080F83D2080F83E3001207B
:10891000704700BF406E00200248402200211DF039
:10892000E5BE00BF406E00200248402200211DF03D
:10893000DDBE00BF406E00204B79082B01D0002027
:1089400070478B79062BFAD1CB79502BF7D1162AA9
:1089500006D81C4B1B68D907F1D500BE0020704714
:1089600070B5194D8B7885F82D300B7882B005F1F4
:108970002F0205F12E0619440223CDE900261A46DE
:10898000044601F0EDFD30B90E4A1268D2070FD54A
:1089900000BE02B070BD204695F82F1000241F23A2
:1089A0002A4685F8304001F0D3FE20B11720F0E7C9
:1089B000002002B070BD034B1B68DB07F6D500BE7C
:1089C0001720E6E7F0ED00E0406E0020002961D1BD
:1089D00070B5137803F07F05022D84B0044620D0D3
:1089E00003F06003202B02D0002004B070BD537848
:1089F000FE2B34D0FF2BF7D15388002BF4D1D6882F
:108A0000B3B2002BF0D13B4D11462046AE87C5E9ED
:108A10000D3385F8303085F83E3001F0FFFE01203F
:108A2000E3E75578012DDBD15388002BDCD1314EA3
:108A3000938896F83020042ADBB243D096F82E10A3
:108A4000994229D096F82F509D4205D122B9294646
:108A500001F0ACFE00283AD0012004B070BD53886C
:108A6000002BC1D1D0880128BED1234B8DF80F0037
:108A70002BB10192FEF738FF019A0028B4D0451EB1
:108A80001146204601230DF10F028DF80F5001F021
:108A9000DFFEE1E701207047022ADDD1B26BB36847
:108AA0009B1A0324B36206F120020D2386F830409E
:108AB00001F04EFE0028CFD1104B1B68DB0793D589
:108AC00000BE92E7194601F07FFE28468DE7294651
:108AD000204601F095FE0028BED1002386F83030F4
:108AE00096F82F10034A20461F2301F031FE00287C
:108AF000B2D1E1E7406E0020E9780200F0ED00E03D
:108B0000F0B5A74C94F83050012D8FB01E460746A3
:108B10006FD0032D46D02DB1022D00F089800120A9
:108B20000FB0F0BD94F82F308B42F8D11F2E40F0DB
:108B30009E809C4B22689A4240F09980E37B9A4A3F
:108B40006068A56284F82C50A5632262A568606203
:108B50000122282B84F83020656300F0DA802A2B6C
:108B600000F09F82002D00F02981227BD20940F085
:108B70002581B5F5007F40F2F78294F83C30A5627C
:108B80000120022284F82C0084F8302023B942F21C
:108B9000050284F83E30A287384601F015FE94F8AD
:108BA0003050B9E794F82E308B42B8D10D2EB6D1A3
:108BB000E37B282B00F06D822A2B00F062827B4B36
:108BC00023B1607B04F10F01AFF30080002084F833
:108BD0003000734A94F82F101F23384601F0B8FD77
:108BE0000028DCD1724B1B68DA0700F1908000206E
:108BF00096E7E37B282B12D02A2B59D0A36B227B3C
:108C00003344D209A36347D0626B9A420DD9684BB3
:108C10001B68DB07C3D500BE94F830507CE7D4E96D
:108C20000D2333449342A3636CD3022384F8303082
:108C300094F82E10384601F0E3FD00287FF46FAF62
:108C4000A368A26B934202D9217BC9091ED19B1A4A
:108C50000325A36294F82E10564A84F83050384603
:108C60000D2301F075FD00287FF459AFBAE7042306
:108C700094F82E1084F83030384601F0A5FD3846BF
:108C800094F82F1001F0A0FD002049E794F82E1071
:108C9000384601F099FD42E7A38E474A607B04F114
:108CA0000F01FEF7A9FE0028C0F2C981A36BABE754
:108CB000E08A40BA80B218B1A368B3FBF0F080B28A
:108CC000D4F81110A26B3C4DB2FBF0F309BA00FBD3
:108CD00013221944607B00962B46FEF7B1FE002854
:108CE000C0F20A82864252D9002840F03382002323
:108CF00094F82F1000933246384601F0FDFB94F8AB
:108D0000305009E7FFF74CFD94F8305004E700BEFF
:108D100006E7E28A52BA92B29DB9002A85D094F849
:108D20003C300222002184F82C2084F83020A162FB
:108D3000002B7FF47DAF42F2050284F83E30A2871B
:108D400076E7207BC0090BD0002A00F0EE81954227
:108D5000C0F02282282B3846D4D0FFF785FD1EE7CD
:108D600094F83C20A562022384F82C3084F830303B
:108D7000002A7FF411AF42F205020023A28784F893
:108D80003E30207BC00900283FF406AF9DE1D4E9C6
:108D90000D2333449342A363BFF447AF3846DCE767
:108DA000406E00205553424355534253000000008B
:108DB000F0ED00E0606E0020406C0020607B252B11
:108DC00027D8DFE813F03701260026000A01260025
:108DD0002600260026002600260026002600260063
:108DE00026002600260026002600E9002600260090
:108DF00026002600260026002600CF00B50026000B
:108E00002600260026002600260026007B002600DD
:108E1000520094F83C30002B3AD1B04AB049ABB282
:108E2000FEF7EAFD002833DB40F0C981A368002B80
:108E30003FF4FBAEA16B94F83C205B1A01200221A9
:108E4000A36284F82C0084F8301022B942F20501A4
:108E500084F83E20A187002B3FF4EAAE237BDB0998
:108E600040F0338194F82F1096E604AA05A9FEF786
:108E7000B1FD059B23B1BDF81020002A40F096817A
:108E800094F83C3023B940F2024284F83E30A28785
:108E9000A268A36B94F83C100120D31A84F82C002C
:108EA0000220A36284F8300021B942F2050084F860
:108EB0003E10A087002A3FF4BBAECCE705AD0023EF
:108EC0000DF10E0204A96B600593AB60FEF782FD05
:108ED000049A002AD4D0BDF80E30002BD0D012BA9C
:108EE0005BBA08200221ADF81E3006928DF81700FB
:108EF0008DF81C1095E80700784BA56883E80700FB
:108F00000C20002D40F03981A36B94F83C205B428B
:108F10000121A362022384F82C1084F83030002A47
:108F20007FF486AE42F2050384F83E50A3877FE6C5
:108F30006C4B002B3FF47AAFE17CC1F3400301F0AE
:108F400001020909AFF3008000287FF46FAF94F8A5
:108F50003C30002B9CD140F202420023A28784F8CF
:108F60003E3095E7059B604A03F4000343F003039A
:108F70000593002A00F01881AFF300809DF81630A9
:108F8000564AA56880F0010060F3C7138DF81630CB
:108F9000059B13600420B4E74FF020330022CDE995
:108FA0000A33524D069207A909AA08930793099319
:108FB0000D930C9305AE0DAB0595FEF79DFC0FCE02
:108FC000DFF818C1A568ACE80F000FCEACE80F00C1
:108FD0003368CCF80030242093E794F83C2094F8D0
:108FE0003D0094F83E10DFF8F4C04FF0000E4FF053
:108FF0000003CDE905EECDE907EE62F303038DF83A
:109000001630F0220A23ADF824E08DF820008DF808
:1090100021108DF814208DF81B3005AE0FCEACE872
:109020000F003368A4F83CE084F83EE0ACF8003070
:10903000122066E7FEF7B4FC002888D0F6E6A268A6
:10904000A36B94F83C0084F82C50D11A0225A1623D
:1090500084F8305020B942F2050584F83E00A58717
:10906000002A3FF4D1AD00293FF4CEAD237BDB09CC
:1090700000F0948094F82E10384601F0A5FBA36B05
:10908000C2E51B4B002B3FF4A1AD607BFEF7EEFC6D
:109090009CE5184B002B3FF499AD607BAFF300804B
:1090A00094E5E28A52BA92B2002D3FF436AE207BAC
:1090B000C0093FF449AE94F83C30A562022284F81E
:1090C0002C2084F83020002B7BD094F82E103846CA
:1090D00001F07AFB94F830501EE500BF406C002090
:1090E0004F6E00200000000000000000008002021F
:1090F0006D7A020000000000A36BA2683344D11A0D
:1091000043F20330A3630023A08784F83E3001209C
:109110000223A16284F82C0084F83030002A3FF446
:1091200087AD00293FF484AD98E6012294F83C30E5
:1091300084F82C200222A56284F83020002B7FF4D2
:1091400022AE42F2050284F83E30A287002D3FF4A1
:109150006FAD16E6A36B361A03442918324628462B
:10916000A3631DF0A9FAC2E5194AABB2384601F073
:10917000EFFA00287FF413AD34E5A84228BF284653
:1091800083B26063124A94F82E10384601F0E0FA78
:1091900000287FF404AD25E50222C7E794F82F10DC
:1091A000384601F011FB81E50120E7E60849A56892
:1091B000013B1BBA12BAC1E900320820A1E6A5683A
:1091C0009FE642F2050284F83E30A287D9E500BF4F
:1091D000406C002030B5154C83B000210D464FF493
:1091E000EE7220461DF082FA04F13C01201D00952C
:1091F0000123402200F0F2F8402204F17C01012317
:10920000009504F1200000F0E9F804F1BC01012010
:1092100018F0BEFE04F5867103460120C4E906532A
:1092200018F0B6FEC4E90D0503B030BD806E002015
:1092300010B5064C2046002340F8043B00F05EFACF
:1092400004F12000BDE8104000F058BA806E002004
:109250004B79FF2B01D0002070472DE9F041324CB3
:109260006678A378334382B003D0002002B0BDE813
:10927000F0810D788B782370804608790F460D4475
:1092800008B36B78052B0AD0AB189D4202D306E0D9
:10929000AB4204D929780D4469780529F8D1234EC9
:1092A0000196731C0246009329460223404601F0B2
:1092B00057F90346A8B13B79A178C3EBC3031D441A
:1092C00031B96178A1B9E81B80B202B0BDE8F08184
:1092D000402306F25B12404601F03AFA03460028AA
:1092E000EFD1134A1268D207BFD500BE1846BDE7BA
:1092F000002001F05BFA06460028E4D10D49402227
:10930000A1F5BE7000F0D2F80028DCD003466178E9
:10931000084A304601F01CFA0028D4D1044B1B68DF
:10932000DB07D0D500BECEE7806E0020816E002026
:10933000F0ED00E01C70002038B5234CA2788A4282
:109340000AD063788B424FF0000004D101F02EFA6E
:10935000054600B3012038BD9AB204F5AE71201D58
:1093600000F056F9194B13B10020AFF30080A1783B
:10937000002001F01BFA05460028EBD1144800F04C
:1093800083F83F28E6D9A178124A2846402301F005
:10939000DFF9012038BD402204F5CE7104F1200030
:1093A00000F084F80028D5D003466178284604F5FB
:1093B000CE7201F0CDF90028CCD1074B1B68DB073A
:1093C000C8D500BEC6E700BF806E002000000000C8
:1093D000846E0020DC6F0020F0ED00E02DE9F0410C
:1093E000B2F5004F9DF8188030D804464069154604
:1093F0000E461F4618B14FF0FF3119F009F8A06969
:1094000018B14FF0FF3119F003F86A0092B26069A9
:109410002660511E00235242E381A580E78084F834
:109420000880A1816281238218B11A46194618F07A
:10943000FFFBA06938B100231A46194618F0F8FB63
:109440000120BDE8F0810120BDE8F0810020BDE8E9
:10945000F08100BFC189028A89B292B28B1A91420F
:109460009BB202D242899B1A9BB28088984228BF45
:1094700018467047C289038A90B29BB2C01AB0FAEC
:1094800080F04009704700BFC189028A89B292B258
:109490008B1A914210B49BB2848802D240891B1A65
:1094A0009BB2E01A80B25DF8044B70472DE9F0479B
:1094B000054680698846914618B14FF0FF3118F093
:1094C000A7FFEB892C8A9BB2A4B21E1BA342B6B2A3
:1094D00002D26A89B61AB6B2AF88B74209D2BB4285
:1094E00049D26A893A449B1A9AB22A822C8A3E4609
:1094F000A4B2002E45D04E4528BF4E46A74203D801
:10950000E41BA4B2A742FBD9A7EB0409B5F806A057
:1095100029681FFA89F94E450AFB041125D919FB60
:109520000AF91FFA89F94A4640461DF0B7F8F21BBE
:10953000224412FB0AF2296892B208EB09001DF0DE
:10954000ADF82A8A92B293199BB29A421BD96A89C2
:1095500013449BB2A8692B8220B100231A461946F6
:1095600018F066FB3046BDE8F0870AFB06F240467D
:109570001DF094F8E5E7A989DA1B92B29142B4D2C2
:10958000AFE72B8A9BB2AA899A42E3D2DFE700BFFA
:1095900070B5044680690E4618B14FF0FF3118F0DF
:1095A00037FFE289238A92B29BB2D01A9A4280B2E4
:1095B00002D26189401A80B2A588854207D2AA42A8
:1095C0001DD261892944521A91B221822846E0B104
:1095D000AB4203D35B1B9BB29D42FBD9E28821685F
:1095E000304602FB03111DF059F80125A06920B196
:1095F00000231A46194618F01BFB284670BDA089A7
:10960000511B89B28842E0D2DBE70546EEE700BF96
:109610002DE9F84F1546002A3FD004464069884698
:1096200018B14FF0FF3118F0F3FEE789237A218A51
:10963000BFB289B2A3BB7A1A8F42A38892B252D327
:109640009A1A92B2954228BF1546A5EB0309B4F8C1
:1096500006A01FFA89F99F423E4603D3F61AB6B216
:109660009E42FBD29B1B20689BB29D420AFB0600D8
:1096700027D80AFB05F241461DF010F8EB199BB202
:109680009F421AD8A2899A4217D36069E38120B118
:1096900000231A46194618F0CBFA2846BDE8F88F81
:1096A000A3889D4223D3B4F806A0ED1A0AFB0588CF
:1096B0000F461D464FF00009CDE7628913449BB267
:1096C000E3E713FB0AF31FFA83FB5A4641464E4475
:1096D0001CF0E4FF16FB0AF2206808EB0B0192B2C3
:1096E0001CF0DCFFCAE76189521A92B2A8E7A5EB29
:1096F0000309B4F806A01FFA89F9ACE710B50446CF
:10970000406918B14FF0FF3118F082FEA06918B11E
:109710004FF0FF3118F07CFEA38860695B009BB2BC
:10972000591E5A420023E381A1816281238218B12C
:109730001A46194618F07CFAA06920B100231A468F
:10974000194618F075FA012010BD00BF38B504465F
:1097500040690D4618B14FF0FF3118F059FEA0696D
:1097600018B14FF0FF3118F053FE6069257220B137
:1097700000231A46194618F05BFAA06920B10023AD
:109780001A46194618F054FA012038BD024B587891
:10979000003818BF01207047B4700020024B1878C1
:1097A000C0F38000704700BFB4700020014B1878F0
:1097B000704700BFEB7000202DE9F0433A4D2E7842
:1097C00083B01EB1304603B0BDE8F0833722314686
:1097D000044636481CF08AFF3549012018F0D8FBB2
:1097E000344B186000283BD033490B464A6833F8A5
:1097F000080B4988009618F0A9F9304B186078B327
:109800002F4F27B12F48AFF300802F4B18602D4EFC
:10981000337877B32D4FDFF8B0804FF000094B4518
:1098200037D8A9EB0303DBB2042B39D803EB43038E
:1098300007EBC3031B689847337809F101095FFA06
:1098400089F91A1D4A45EADA204601F06FF92046E7
:1098500001F06EF9012630462E7003B0BDE8F083AA
:109860001B4B1B68DB07ADD500BE304603B0BDE81F
:10987000F083DFF8588001E0052F11D007EB470394
:10988000013758F833309847337804339F42F3DD7B
:10989000DAE7D8F8003009EB490203EBC203C9E765
:1098A00000231B68FFDE00BFEB700020B4700020B7
:1098B00064700020EC70002000610020F070002037
:1098C00000000000607000205C70002074980400AC
:1098D000F0ED00E02DE9F04F8BB002F01BF800280E
:1098E00000F06F81BE4DDFF81893DFF818A3DFF8A2
:1098F00018B328684FF0FF3207A918F02DFC002894
:1099000000F05F819DF81D30013B072B00F2F284CF
:10991000DFE813F00001C900A300940088003F00B5
:109920000E000800089B002BE3D009989847E0E759
:109930009DF82010AB4B01F07F0403EB440303EBD5
:10994000D11393F825006FF3000083F8250093F8F6
:1099500025006FF3820083F82500002C00F034818D
:10996000A14ADB7C32B1A14A12789342C0F01C813B
:109970009B1ADBB2042B00F21F8103EB43030AEBBB
:10998000C3031C699DF82120099B9DF81C00A0477A
:10999000AFE7DFF850829DF81C6098F8003043F084
:1099A000010388F8003098F825306FF3000388F839
:1099B000253098F825306FF3820388F8253098F821
:1099C00026306FF3000388F8263098F826306FF3BE
:1099D000820388F82630002000F09EFF9DF820309A
:1099E00003F06002602A0DD0402A00F0438103F0AA
:1099F0001F03012B00F09B81022B00F06D81002BD7
:109A000000F04781D9F80030DC0700D500BE9DF892
:109A10001C00002101F032FA9DF81C00802101F0A9
:109A20002DFA66E76F4B1B78DA077FF562AF704B54
:109A3000002B3FF45EAFAFF300805AE7694B1A7812
:109A4000D1077FF556AF6B4A002A3FF452AF187822
:109A5000C0F3C000AFF300804BE7644C624F227844
:109A6000002F00F0F480002614E0B31ADBB2042BC0
:109A700000F2FD8003EB43030AEBC3035B691BB1F8
:109A80009DF81C00984722780136F6B2131DB342A8
:109A9000FFF62FAFB242E8D9DBF8003006EB460103
:109AA00003EBC103EAE7514C4F4F23789DF81C604C
:109AB000002F00F0BA800027BB4267D8FB1ADBB248
:109AC000042B00F21F8403EB43030AEBC3035B6820
:109AD0003046984723780137FFB21A1DBA42EBDAB5
:109AE000372200213F481CF001FE434B4FF0FF326C
:109AF0001A605A609A60DA601A615A619A61DA6192
:109B00001A8400F0FFFE3D4B002B3FF4F2AEAFF3A2
:109B10000080EEE6354C344F23789DF81C60002F12
:109B20005AD000279F4238D3FB1ADBB2042B00F235
:109B3000E98303EB43030AEBC3035B6830469847B2
:109B400023780137FFB21A1DBA42EBDA254C3722CF
:109B5000002120461CF0CAFD4FF0FF33C4F803304B
:109B6000C4F80730C4F80B30C4F80F30C4F8133011
:109B7000C4F81730C4F81B30C4F81F30A4F82330E1
:109B800000F0C0FE9DF82030A370B2E6DBF8003094
:109B900007EB470203EBC20399E7DBF8003007EB62
:109BA000470203EBC203C8E7DBF8002003EB4303E3
:109BB00012EBC3037FF4E5AE114B1B68D80700D549
:109BC00000BE0BB0BDE8F08F099B9DF821209DF8E9
:109BD0001C0000F0B3FE8CE6DFF8288019E000BF1F
:109BE000F0700020B47000200000000060700020C1
:109BF0000000000000000000B7700020000000001E
:109C0000F0ED00E0749804005C700020052F00F077
:109C10007983D8F8043030469847237801370433E5
:109C20009F4208F11808F1DD90E7DFF8508302E069
:109C3000052F00F06783D8F8043030469847237822
:109C400001370433BB4208F11808F1DA48E7CB4E7C
:109C500073691BB19DF81C00984722780137131DCA
:109C60009F4206F118063FF744AE052FF0D10023BE
:109C70005B69FFDEC24800283FF4C9AE00F04CFE2D
:109C8000304608AA0021FDF74DFF00287FF431AED1
:109C9000BDE6202A00F08480002A7FF4B3AE9DF850
:109CA0002130092B3FF6AEAE01A252F823F000BFDF
:109CB000379E0200379F0200059A0200179F02009C
:109CC000059A0200F99E0200A59E0200059A020074
:109CD0008D9E02005B9E02009DF8241001F07F0320
:109CE000082B3FF68FAE08EB430000EBD110A54CDC
:109CF000C07C5B00CF0934B1A34C2478A042C0F0F3
:109D00008E80001BC0B2042862D800EB40000AEB32
:109D1000C004002A60D0E06800F0FEFDE368304631
:109D200008AA0021984700287FF4E3AD6FE69DF86C
:109D300024300F2B3FF66BAE4344924ADB782AB1B6
:109D4000914A1278934261D39B1ADBB2042B3FF6FF
:109D50005EAE03EB43030AEBC304E06800F0DCFDF6
:109D6000E36808AA00213046984700287FF4C1AD77
:109D70009DF8203013F060047FF449AE9DF8213047
:109D80000A3B012B3FF643AE00F0C6FD9DF82130A3
:109D90000A2B00F07B8108A9304600F03FFDA8E5C2
:109DA0009DF824300F2B3FF632AE4344754ADB78E2
:109DB00032B1754A12789342C0F04D819B1ADBB2E2
:109DC000042B3FF624AE03EB43030AEBC304A2E7E4
:109DD000002A7FF41CAE14469DF8212002F0FD00FD
:109DE000012800F00A81002A7FF40CAE43443B4472
:109DF000304693F825400DF11A02C4F340040223C3
:109E000008A9ADF81A4000F023FD72E5DBF8004028
:109E100003EB430314EBC3043FF4F9AD9DE7DBF818
:109E2000004000EB400004EBC004002AD4D0002C1A
:109E30007FF471AFEBE598F800309C0804F0020461
:109E4000C3F340131C43304602230DF11A0208A944
:109E5000ADF81A4000F0FCFC4BE59DF8223002936F
:109E60001A4698F801309A4208D098F80130002B31
:109E700040F09581029B002B40F01281029B88F8F4
:109E80000130304608A900F0C9FC32E598F80130ED
:109E90008DF81A30304601230DF11A0208A900F09E
:109EA000D7FC26E5BDF82200030A5A1EC0B20E2ACE
:109EB0003FF6ADAD01A151F822F000BFE39F0200D3
:109EC000C79F0200B79F02000F9A02000F9A02007C
:109ED000919F0200C79F02000F9A02000F9A020092
:109EE0000F9A02000F9A02000F9A02000F9A0200C6
:109EF0000F9A0200579F020008A800F013FD9DF87A
:109F00002210304600F01AFE98F8003043F00203A9
:109F100088F80030EDE4BDF82230012B7FF477ADF6
:109F200098F80030304643F0080308A988F800305C
:109F300000F074FCDDE4BDF82230012B7FF467AD46
:109F400098F8003030466FF3C30308A988F8003052
:109F500000F064FCCDE40D4B002B3FF458ADFDF751
:109F6000DDFD024600283FF44DAD5388304608A978
:109F700000F06EFC00287FF4BCAC48E57498040047
:109F8000257B020000000000607000201D7B0200A5
:109F9000B64B002B3FF43BADAFF3008002460028E8
:109FA0003FF435AD1378304608A900F051FC002885
:109FB0007FF49FAC2BE5BDF82410FDF75BFC024657
:109FC0000028EFD123E5022B00F08A81A84B002B5B
:109FD0003FF41DADAFF300800246002A3FF412ADFE
:109FE000C3E7FDF73DFC1223024608A9304600F006
:109FF0002FFC00287FF47DAC09E5BDF8220000901D
:10A0000048B9012A43442FD03B4403F1200793F879
:10A0100025309B0713D5002C3FF46BACE06800F0B3
:10A020007BFCE36808AA002130469847002000F036
:10A0300073FC98F82630DF073FF55BACABE63046A3
:10A0400000F01CFF7B7943F002037B717B7943F0C6
:10A0500001037B71DFE7DBF8004003EB430314EB04
:10A06000C3043FF4D4AC56E61F4420377B799A07EB
:10A07000D1D5304600F042FF7B79009A62F341036C
:10A080007B717B7962F300037B71C4E708A93046DA
:10A0900001230DF11A028DF81A4000F0D9FB28E4D3
:10A0A000581EC0B2FDF7E0FB002871D04378022BA8
:10A0B0006ED1C27998F80010C2F340131B01C2F3AD
:10A0C000801221F0300143EA42130B4388F800303C
:10A0D00043880396C31800F1090704933946049B8B
:10A0E0008B4240F2F5804B780B2B00F0DD80012293
:10A0F0000092042B4CD1049B5E4A5B1A9BB20193E5
:10A100005D4B1B784AB3002637461DE0F31ADCB2DC
:10A11000042C00F2EC8004EB44040AEBC404019A22
:10A12000A36803980591984708280599024603D922
:10A13000019B834280F082804F4B1B780136F6B240
:10A140001A1DB242374623DBB342DFD9DBF80040A9
:10A1500006EB460304EBC304E1E7484B17461C46F5
:10A16000052FFEB200F0C380019AA3680398059101
:10A17000984708280599024602D9019890425DD275
:10A180003D4B1B7801370433BB4204F11804E7DA76
:10A19000D9F80030D9077FF535AC00BE32E4364C33
:10A1A000344F304600F072FD98F802202378009278
:10A1B00087B30027BB4226D8FB1ADBB2042B00F280
:10A1C000A18003EB43030AEBC3035B683046984767
:10A1D00023780137FFB21A1DBA42EBDA372228483A
:10A1E00000211CF083FA274B009A88F802204FF0D8
:10A1F000FF321A605A609A60DA601A615A619A6195
:10A20000DA611A8436E6DBF8003007EB470203EB2D
:10A21000C203DAE7194B304626461C4601E0052FFB
:10A2200070D0636801909847327801980137043202
:10A23000BA4204F11804F2DA0646CFE7009B012B7C
:10A2400038D0009B03B391F802C0002305E001332E
:10A25000C6700098DCB2844216D20CEB030058FAA8
:10A2600080F0C478FF2CF2D092E700BF000000001D
:10A2700000000000000000006070002074980400DE
:10A28000B4700020B770002033462048CDE900129A
:10A2900001F076FB1E4B1B78DDE900120433BB4254
:10A2A0001144BFF61CAF73E70B78CA7800921944CB
:10A2B0004B781EE7A3681748834206D0009C1648D7
:10A2C000834208BF02240094BDE702230093BAE74B
:10A2D000124B039E002B3FF4D1ADAFF30080CDE5D0
:10A2E000FDF7C2FA0246002A3FF48CAB3DE600239C
:10A2F0009B68FFDED9F80030DB077FF5FAAA00BEC5
:10A30000FFF7F7BA00235B68FFDE00BFC7700020CD
:10A3100060700020197E0200A1850200000000008C
:10A3200030B589B000248D1ECDE9024404948DF827
:10A3300009108DF80800032D5CD8DFE805F0082C23
:10A3400048023B4B1978C80761D409B030BD384981
:10A3500038480B7800686FF300030B700C7800230B
:10A360006FF341040C704B700C7863F382040C7033
:10A37000002A37D002A905AA17F040FE059B002B42
:10A38000E3D02D4B4FF080525A6040BFBFF34F8F48
:10A39000BFF36F8FD9E7264B19784907D5D51978C0
:10A3A000244C6FF38201197000230521CDE9053398
:10A3B00007938DF814008DF815102068002A2FD10E
:10A3C000134605A94FF0FF3217F032FCBDE7184BDA
:10A3D0001978CC07B9D51978164841F004010068FE
:10A3E00019705AB9134602A94FF0FF3217F020FC3A
:10A3F00009B030BD0F4B1868002AF3D0002302A922
:10A4000005AA17F0FBFD059B002B9ED0B9E7197834
:10A4100008486FF3820100681970002AEED1E1E765
:10A4200005A901AA17F0EAFD019B002B8DD0A8E732
:10A43000B4700020F070002000ED00E030B5144D45
:10A4400085B000240123CDE9014403948DF8040074
:10A450008DF8081028688DF805303AB9134601A91F
:10A460004FF0FF3217F0E4FB05B030BD234601A9E1
:10A470006A4617F0C3FD009B002BF5D0054B4FF04B
:10A4800080525A6040BFBFF34F8FBFF36F8FEBE72F
:10A49000F070002000ED00E030B50B4685B00446BA
:10A4A00049681868124D8DF8044002AC03C40023BB
:10A4B00006212868ADF806308DF805103AB9134624
:10A4C00001A94FF0FF3217F0B3FB05B030BD6A466B
:10A4D00001A917F093FD009B002BF6D0054B4FF020
:10A4E00080525A6040BFBFF34F8FBFF36F8FECE7CE
:10A4F000F070002000ED00E030B585B0164D0392FD
:10A500009DF820402D680022CDE901228DF8081029
:10A5100007218DF804008DF809308DF8051044B935
:10A52000234601A928464FF0FF3217F081FB05B002
:10A5300030BD134601A928466A4617F05FFD009B0F
:10A54000002BF4D0054B4FF080525A6040BFBFF350
:10A550004F8FBFF36F8FEAE7F070002000ED00E04F
:10A560002DE9F84FDDE90A8A002A3CD0DFF8809017
:10A5700007460C461E4615464FF0000B17E099F8AB
:10A58000021001F0C9F9034621463846EBB100F04C
:10A59000E7FAF8B1A378DA0914BF8AF8003088F82E
:10A5A000003023780BF1010BAB451C441BD06378C2
:10A5B000052B20460ED1E17801F00301B14209D10B
:10A5C000A37803F07F03082BD9D9084B1B68DA075F
:10A5D00000D500BE054B1B68DB0702D40020BDE898
:10A5E000F88F00BEFAE70120BDE8F88FF0ED00E03B
:10A5F000B470002030B5124D85B000230824CDE999
:10A600000201019328688DF805403AB9134601A963
:10A610004FF0FF3217F00CFB05B030BD6A4601A9C0
:10A6200017F0ECFC009B002BF6D0064B4FF080524D
:10A630005A6040BFBFF34F8FBFF36F8FECE700BF8F
:10A64000F070002000ED00E038B58B7803F07F0358
:10A65000082B06D90A4B1B68DB0700D500BE00207B
:10A6600038BD084B0C4605460846997801F054F968
:10A670000028EFD021462846BDE8384000F070BAE7
:10A68000F0ED00E0B4700020F8B5194B01F07F0444
:10A6900003EB440303EBD11101F12004607910F0C6
:10A6A000010519D163795A07C3F3800701D52846FC
:10A6B000F8BD104E4FF0FF31306817F0A9FE6079F9
:10A6C00010F001050BD163795B0709D4637943F07E
:10A6D00004036371012503E000252846F8BD3D46CB
:10A6E000002330681A46194617F0A2FA2846F8BD2A
:10A6F000B4700020EC70002038B5134D0C4628686B
:10A700004FF0FF3117F084FE104B04F07F0103EB94
:10A71000410303EBD41120314B7913F0010310D125
:10A720004A79C2F38004520703D54A7963F382025F
:10A730004A71002328681A46194617F079FA20460C
:10A7400038BD0024F5E700BFEC700020B470002095
:10A7500070B5144D01F07F0605EB460505EBD114ED
:10A7600020346579ED0706D50F4B1B68DA0700D555
:10A7700000BE002070BD657945F00105657100F0EF
:10A78000D5FA0028F6D16379074A60F300036371B4
:10A79000637960F3820363711368DB07E9D500BE58
:10A7A00070BD00BFB4700020F0ED00E0054B01F07B
:10A7B0007F0203EB420303EBD11191F8250000F077
:10A7C00001007047B470002010B50C4B01F07F02FF
:10A7D00003EB420303EBD11494F825309B0700D51B
:10A7E00010BD203400F04AFB637943F0020363712B
:10A7F000637943F00103637110BD00BFB4700020A2
:10A80000054B01F07F0203EB420303EBD11191F8FA
:10A810002500C0F340007047B47000200B4630B4F0
:10A820000A4C496805461868224603C293F900207D
:10A8300000239A42C4E902332846A8BF802130BCD5
:10A84000B8BF19461A46FFF783BF00BFB471002096
:10A85000F0B50C46284F496806462068BA603D4668
:10A8600003C50021F981E588AB4228BF2B4683B0A0
:10A87000BB81A5B11BB352B397F90000402B28BF91
:10A88000402300282ADB1D4A3046FFF761FF98B9B4
:10A890001B4B1B68DB071ED500BE03B0F0BD94F94F
:10A8A0000030002BACBF8021002130462B462A46C9
:10A8B000FFF74EFF0028EBD0012003B0F0BD97F961
:10A8C0000020002AACBF194680211A46DCE70C4B59
:10A8D0001B68D9070CD4002003B0F0BD114607480F
:10A8E00001931A461BF0DAFE044A019B8021CBE754
:10A8F00000BE1046E1E700BFB4710020C87100201F
:10A90000F0ED00E0034B0022C3E90022C3E902227C
:10A910001A617047B4710020014B1861704700BF85
:10A92000B47100200346044A59680068134603C303
:10A930000023C2E902337047B4710020F0B5414CE6
:10A940002578C909B1EBD51F83B01F46064616D03E
:10A9500033B13D4B1B68DA0757D4002003B0F0BD7C
:10A960003A4B13B12146AFF300802369002B2FD05F
:10A97000344A304602219847012003B0F0BD94F9D3
:10A980000020002A06DBA0680028E6D030491A46DD
:10A990001BF084FEE589A168E2883D44ADB23944EC
:10A9A000AA42E581A16016D03F2F14D9A28994F95B
:10A9B0000000531B9BB2402B28BF402300282FDBF5
:10A9C00095423BD0224A00213046FFF7C1FEB0B18C
:10A9D000012003B0F0BD236923B11A4A012130469A
:10A9E0009847A0B194F9002000239A42ACBF80217F
:10A9F000194630461A46FFF7ABFE0028E8D1124B45
:10AA00001B68DB07A9D500BEA8E700BEA5E7014685
:10AA1000304600F033FA3046802100F02FFAD7E7B5
:10AA2000954208D01A460A4801931BF037FE084A9F
:10AA3000019B8021C8E780210022C5E700210A464A
:10AA4000C2E700BFB4710020F0ED00E0000000009C
:10AA5000C871002042DF704743DF704744DF704712
:10AA600012DF70472C4B5B68C3F3080313B9EFF395
:10AA700010839BB1294B93F8D820002A36D10122AC
:10AA800083F8D8200260BFF36F8FBFF34F8F244A43
:10AA9000904227D0043A904224D07047214A53680C
:10AAA0001B06E7D5802110B4C2F88410BFF34F8F86
:10AAB000BFF36F8F194B93F8D840E4B9012283F8A4
:10AAC000D8200260BFF36F8FBFF34F8F144A9042BC
:10AAD0001DD0043A90421AD0124B80225A605DF881
:10AAE000044B7047002283F8D820704701460122AA
:10AAF0000D48FFF77FBD5160C2F88410BFF34F8F40
:10AB0000BFF36F8F93F8D840002CF4D1D6E7002222
:10AB100083F8D820E0E700BF00ED00E008720020D5
:10AB20005070024000E100E065AA0200704700BFDB
:10AB3000014B80225A60704700E100E0074BD3F8D8
:10AB40000014D3F8002400200A434FF48001C3F816
:10AB50000024C3F85801C3F8041370470070024082
:10AB6000F0B488788D88CC78444FC10900F07F021A
:10AB700002EB42034E00DB000E4403EB86033B4432
:10AB800004F00304C5F30A05012C1D812FD0D9B1AF
:10AB90003B49941C012303FA04F4C1F80443D1F89F
:10ABA000104503FA02F22243C1F81025344B40F459
:10ABB0008072C3F81805C3F80C25BFF36F8FBFF37D
:10ABC0004F8F0120F0BC70472D4C02F10C05012382
:10ABD00003FA05F5C4F80453D4F81455934002F56C
:10ABE00094722B43C4F8143544F82210DEE7082A87
:10ABF00007D0244B186810F00100E3D000BE0020FD
:10AC0000E0E7E9B9B7F8D4301BB11D4B8022C3F897
:10AC10001C251B4A0023C2F85031D2F8003313F42C
:10AC2000001308BFC2F85431154B4FF44012C3F85B
:10AC30000423D3F8142542F48072C3F81425B5E731
:10AC4000B7F8C8200E4B0021C3F82C1112B1802296
:10AC5000C3F81C250A4AD2F8003313F4001308BFC6
:10AC6000C2F85431064B084AC3F80423D3F8102520
:10AC700042F48072C3F8102598E700BF08720020E4
:10AC800000700240F0ED00E000082000214B80221F
:10AC9000F0B4C3F88420BFF34F8FBFF36F8F1E4A09
:10ACA0001E4E0D21012500231D4CA1F10A004FEA83
:10ACB000810C05FA01F7644405FA00F001313843CC
:10ACC0001429C6F808036360A362C2E90033C2E92D
:10ACD0000233C2E9043302F11802E5D11149124AE4
:10ACE000C6F80823C6F81C35C1F8C0307362C1F835
:10ACF000C430B364C1F8C830C6F81455C1F8CC30BC
:10AD0000C6F81055C1E93433024B80225A60F0BCBA
:10AD1000704700BF00E100E0207200200070024098
:10AD2000D06F02400872002000083000F0B501F03A
:10AD30007F00CF090D467C0000EB4001DFF838C1F1
:10AD4000C9003C4401EB84040CEB040E1E460023B6
:10AD5000AEF806304CF8042083B0AEF8046043002F
:10AD600040B127BB0CEB01039A7A002A48D101209D
:10AD700003B0F0BDD6B93A4AD2F88024C2F3C0126B
:10AD8000974213D03748FFF76DFE374B5B68C3F32C
:10AD90000803003B18BF0123009330462946334681
:10ADA0003246FFF7A9FB012003B0F0BD17B30344FF
:10ADB0000CEBC30C00EB8003BCF81210BCF81020A5
:10ADC000BCF81440DCF80C50521A9B0092B203F10C
:10ADD000804303F51C332549C3F80056A24228BF1F
:10ADE000224601EB8000C3F80426FFF73BFE01205A
:10ADF00003B0F0BD1E48FFF735FE012003B0F0BDE3
:10AE000008289F720ED1164BD3F8C024D103AED4BC
:10AE1000DCF8C010C3F8A0171648C3F8A427FFF742
:10AE200021FEA4E75CF801500D4C9A8800F594715E
:10AE300000EB800654F82110DB88D31A9BB289B24C
:10AE400004EB86028B4204F1280428BF0B46C2F8AB
:10AE5000005704EB8000C2F80437FFF703FE86E7D3
:10AE6000007002405070024000ED00E004700240AB
:10AE70004C7002404870024008720020F8B511F092
:10AE80007F0307D11A4B01225A65BFF36F8FBFF3BF
:10AE90004F8FF8BD082BF8D0154A41F48070C909CE
:10AEA000C2F81805F1D1134D03EB430005EBC004C4
:10AEB000C000A67A002EE8D003F59476A17252F86D
:10AEC0002660A188E4882F580B480C1BA1B2B5B2AC
:10AED00003EB830C02EB8C02A94228BF2946C2F87F
:10AEE000007700EB8300C2F80417FFF7BBFDCCE747
:10AEF00000700240087200202870024011F0770FA5
:10AF000012D00A4B41F48072C3F80C15C3F80C251B
:10AF1000CA09C3F8181504BF01F5947143F821203C
:10AF2000BFF36F8FBFF34F8F704700BF00700240B9
:10AF30002DE9F04F854B8648D3F80013002387B0E6
:10AF40001F461D46012421FA03F2D6070BD550F8FF
:10AF5000232042B104FA03F240F823501743BFF311
:10AF60006F8FBFF34F8F0133192BECD1FC0700F12A
:10AF7000C781784E380508D5744BD3F8A83601221E
:10AF80009BB2A6F8D23086F8D720B90214D56F4C00
:10AF9000D4F81435DA0500F10482D4F81035DB0555
:10AFA00040F1098296F8D730002B40F0348201221C
:10AFB00003210020FFF7B4F979021FD5634BD3F8C2
:10AFC000004404F4E062C3F80024E20500F1DE81ED
:10AFD000650510D55D4B0122C3F808259A65D3F8A5
:10AFE000002312F4001208BFC3F85421574B4FF44A
:10AFF0000012C3F80423A00500F1C28139022BD549
:10B00000524BD3F88024D2B28DF81020D3F8841498
:10B01000C9B28DF81110D3F888048DF81200D3F856
:10B020008C048DF81300D3F890048DF81400D3F835
:10B0300094048DF81500D3F898048DF81600D3F811
:10B040009C348DF81730520601D1052904D0012215
:10B0500004A90020FFF720FA3F4B3B403BB196F894
:10B06000D830002B00F08581002386F8D830DFF837
:10B07000E490DFF8D8A002974D460024C8460DE0C2
:10B08000B2F806C0A5F804C0D2880127009792B292
:10B09000FFF732FA082E3DD001341835029B04F137
:10B0A0000C0223FA02F204EB440C04EB840E08EBCE
:10B0B000CC0C0023E6B212F0010F0AEB8E0E6246B2
:10B0C00031461846E6D0DEF808E72F685FFA8EFEB4
:10B0D00007EB0E0BC5F800B0BCF806B01EFA8BFBF0
:10B0E0001FFA8BFB082CACF806B01FFA8EFEC7D0F7
:10B0F000B5F808B0F345C3D1BCF806C0B5F804E014
:10B100001FFA8CFCE645BBD9002EC3D11348FFF7CC
:10B11000A9FCC1E7029F124B3B404646002B00F0C2
:10B12000CA800A4BD3F86C84C3F86C84BFF36F8F6A
:10B13000BFF34F8F17F4806740F0C080CDE90277EE
:10B14000024FDFF820A0002416E000BF007002408C
:10B150000071024008720020FCFB1F004C7002408E
:10B160000004000104700240002C00F0BC80072D98
:10B170003DD0013409F1180928FA04F304EB840CDA
:10B1800004EB440213F0010F07EB8C0C06EBC20238
:10B19000E5B24FEA8400E7D0DCF80816D9F80C30A5
:10B1A000C9B203EB010BC9F80CB0538A11FA83F34F
:10B1B0009BB25382518AB9F810E089B271454FF0C1
:10B1C0000003504445F0800180F08580538AB9F82F
:10B1D0001420CCF800B6AEEB03039BB2934228BF19
:10B1E0001346CCF80436FFF73DFC072DC1D118F407
:10B1F000803F7DD1039B002B7AD118F4003F08D00B
:10B20000F28BB38B92B2934200F2F280012386F864
:10B21000223018F4802F08D0F38EB28E9BB2934266
:10B22000C0F00681012386F83A3018F4002F0AD0C6
:10B23000B6F84E20B6F84C3092B29A42C0F00B816C
:10B24000012386F8523018F4801F0AD0B6F8662021
:10B25000B6F8643092B29A42C0F01181012386F8A8
:10B260006A3018F4001F0AD0B6F87E30B6F87C2099
:10B270009BB29342C0F02181012386F8823018F4FA
:10B28000800F0AD0B6F89630B6F894209BB293425D
:10B29000C0F02781012386F89A3018F4000F0AD0F5
:10B2A000B6F8AE30B6F8AC209BB29342C0F02E8117
:10B2B000012386F8B23007B0BDE8F08FD3F88024C0
:10B2C000D3F8803483F08003C3F3C0130393C2F335
:10B2D000C013029334E7528A0120009092B21846BC
:10B2E000FFF70AF943E7029B002B3FF442AF53E715
:10B2F000F388B2889BB29A4267D80123B3727CE785
:10B300008D4B8E4A8E4E8F4800240125C2F814556D
:10B31000C2F81055546094625C609C629C60DC6270
:10B32000DC601C631C615C635C619C639C61DC632E
:10B33000DC611C6454629464C2F85841D2F8003451
:10B34000D2F800140B43C2F80034D2F80033C2F82C
:10B3500008332146C2F804033046DC221BF0C6F94C
:10B3600040232A4621462046B3823381FFF766F800
:10B3700000E6754B1B68DB077FF579AE00BE76E60D
:10B38000012205210020FEF7CBFF37E60122C3F89A
:10B390002C2504210020FEF7C3FF65057FF52BAEA9
:10B3A00018E6D4F8C034DD037DD5D4F81035D805BF
:10B3B0003FF5F8ADFBE54FF40013C4F80833012264
:10B3C00003210020FEF7ACFFF6E55C493468D1F8B4
:10B3D000A004F388C1F80047D31A9BB282B293420B
:10B3E00028BF13465948C1F80437FFF73BFB04E771
:10B3F000524AB469D2F8A414F08BC2F814471B1A4D
:10B400009BB289B28B4228BF0B465148C2F818370D
:10B41000FFF728FBFDE6B6F8D220002301210091BA
:10B4200092B21846882186F8D730FFF765F8BEE556
:10B430004249346BD1F8A804F38EC1F82847D31AD7
:10B440009BB282B2934228BF13464248C1F82C37C0
:10B45000FFF708FBE9E6394AB46CD2F8AC14B6F849
:10B460004E00C2F83C471B1A9BB289B28B4228BFE0
:10B470000B463948C2F84037FFF7F4FAE3E62F4AA3
:10B48000346ED2F8B014B6F86600C2F850471B1AF2
:10B490009BB289B28B4228BF0B463048C2F8543762
:10B4A000FFF7E0FADDE6D6F8C020C4F8A0272C4864
:10B4B000C4F8A437FFF7D6FA77E72049B46FD1F87C
:10B4C000B404B6F87E30C1F86447D31A9BB282B296
:10B4D000934228BF13462348C1F86837FFF7C2FAE2
:10B4E000CDE61649D6F89040D1F8B804B6F89630B3
:10B4F000C1F87847D31A9BB282B2934228BF134651
:10B500001948C1F87C37FFF7ADFAC6E60B49D6F803
:10B51000A840D1F8BC04B6F8AE30C1F88C47D31AB5
:10B520009BB282B2934228BF13461048C1F89037AD
:10B53000FFF798FABFE600BF0470024000700240B7
:10B54000087200200514C001F0ED00E028700240F0
:10B550002C7002403070024034700240387002405B
:10B56000487002403C70024040700240447002400B
:10B57000F0B5012883B006D0022800F082800028B0
:10B580003AD003B0F0BDB34BD3F80025002AF8D071
:10B590000022C3F80425BFF36F8FBFF34F8FAE496E
:10B5A0008020C1F88400BFF34F8FBFF36F8FD3F8B3
:10B5B0000013C3F80813C3F80025BFF36F8FBFF360
:10B5C0004F8F43F2040103F18D53096803F577238C
:10B5D00003F2DB53994200F06D81A04B01221A6007
:10B5E0009F4B5A68C2F30802003A18BF0122022199
:10B5F0000020FEF795FEC4E7964BD3F80025002AFD
:10B60000BFD14FF480014FF40062C3F80813C3F8B0
:10B610000024BFF36F8FBFF34F8F924B1B68082B33
:10B6200000F0C7808B4B0122C3F80025BFF36F8F5A
:10B63000BFF34F8F43F2040203F18D53126803F5F9
:10B64000772303F2DB539A4200F0DD804FF0804312
:10B65000D3F80C24D3F80C34DF0300F1E88043F274
:10B660000402814B12689A4200F0E5807F4B002271
:10B670001A601B6801934FF08043012201991A6000
:10B680007FE7744BD3F80435002B47D1714AD2F8C9
:10B6900000341805FBD54FF40063C2F80034BFF343
:10B6A0006F8FBFF34F8F6F4B1B68082B48D06949D2
:10B6B000694A80230120C1F81C35C1F80403C2F88F
:10B6C00084315360684E43F204054FF080442B6888
:10B6D000B34211D0D4F80C24D4F80C34D903F6D5E5
:10B6E000D307F4D55B4B0122C3F80425BFF36F8F5A
:10B6F000BFF34F8F03B0F0BD01A800278DF8047091
:10B70000FFF7AEF99DF80430002BE3D001A80197B4
:10B71000FFF7A4F9019B002BD9D0E3E743F2040221
:10B72000514B12689A4200F0B1804FF08043D3F839
:10B730000C24D3F80C34DD03A8D5D407A6D520E714
:10B740004B4B1B68032BB2D84A4B1A68002A40F0B7
:10B75000BE80494849F27531196002601960414A5A
:10B76000434B12681B68082AA1D1032B9FD8434A78
:10B77000D35C93B13F4B1A68002A40F0B080404838
:10B7800049F27531196002601960364A384B126807
:10B790001B68082A8BD1032B89D83A493A4B40F2CF
:10B7A000E370402208601A60BFF36F8FBFF34F8FC2
:10B7B0007DE72F4B1B68032B3FF634AF2F4AD35C3A
:10B7C000ABB12C4B1A68002A40F08D802C4949F20D
:10B7D000753203201A6008601A60224A244B1268EE
:10B7E0001B68082A7FF41EAF032B3FF61BAF214BCB
:10B7F0001A68002A6FD1204949F27532C0201A60B8
:10B8000008601A600EE701A800248DF80440FFF7D5
:10B8100027F99DF80430002B3FF418AF01A80194DC
:10B82000FFF71CF9019B002B7FF4ABAE17E7D6079F
:10B830003FF5A7AE13E7002301A88DF80430FFF70A
:10B840000FF99DF80430002B3FF410AFFFF702F919
:10B8500097E600BF0070024000E100E004000040F5
:10B8600000ED00E030010010DBE5B15100010040C7
:10B870003401001000EC064014EC0640EC98040083
:10B8800014ED0640007802400478024001A800242C
:10B890008DF80440FFF7E4F89DF80430002B3FF4E6
:10B8A00044AF01A80194FFF7D9F8019B002B7FF466
:10B8B00068AEEBE601A88DF80420FFF7D1F89DF8FB
:10B8C0000430002B3FF489AEFFF7C6F888E6084B3A
:10B8D00000221A6043E7064BC0221A60A2E6054B1D
:10B8E00000221A6051E7034B03221A6075E700BF7C
:10B8F00014EC064014ED064008B50020FDF75CFF8F
:10B9000000B108BD024B1B68DB07FAD500BE08BDBD
:10B91000F0ED00E0FDF74ABFC378828803F0030032
:10B920000228C2F30A0205D0032819D0012807D043
:10B930000020704702291CD0402A09D801207047F6
:10B94000022940F2FF3308BF4FF480639342F6D2DE
:10B950000A4B186810F00100F1D000BE00207047BB
:10B9600002290CBF4FF4806340239342F0D301209F
:10B97000E5E7B2F5007FE1D0EAE700BFF0ED00E0D7
:10B980000A44914216D230B44C78052C05D00C787C
:10B9900021448A42F8D830BC70478C7804F07F0587
:10B9A00000EB4505E4092B550C7821448A42EBD87D
:10B9B00030BC7047704700BF704700BF203015F0A3
:10B9C000B3BE00BF38B5437F0BB9002038BD00F5CA
:10B9D000947420460D4615F0B7FE0028F5D1204698
:10B9E000294615F081FE012038BD00BF203015F03A
:10B9F0008DBE00BF203015F09FBE00BF2DE9F04F77
:10BA000083B0019272B34C1E174F0546C1F1010677
:10BA100004EB020800F5947A2B681B68BB4206EB26
:10BA2000040B14F8019F17D16B7F50461BB9584681
:10BA300003B0BDE8F08F15F087FE03464946504637
:10BA4000002BF4D115F050FE4445E5D1DDF804B0EB
:10BA5000584603B0BDE8F08F49462846984700286D
:10BA6000F2D1E4E79346E2E7C5B9020030B4837E41
:10BA70001F2B4FF0010288BF03F01F03C27603F5AE
:10BA8000E0738CBF244A4FF0A04240F20C6142F8B0
:10BA90002310437E02691F2B86BF03F01F031E493C
:10BAA0004FF0A04103F5E07340F20C6441F82340ED
:10BAB0004FF0CC710623C2F82415C2F80035837EFE
:10BAC000C2F8083590F91830417EC2F80C15002BE9
:10BAD0001ADB124C5A0903F01F056032012123447E
